:10000E00000208020D020F020D0800020D020D0281
:10001E000F010D010D0800020D020D020F0211025B
:10002E001602180219020002160216021402140217
:10003E0011020D020F02000208020D020F010D0146
:10004E000D0800020D020D030F0111080002080237
:10005E000D020F02110216021802190200021602F8
:10006E00160214021402160211020F0200021902E5
:10007E001902190219021602250222022204220274
:10008E00200220021D021D0219021B041902190270
:10009E001902160225022702250425022202000259
:1000AE0020021D0220021B04190218021902160258
:1000BE002502220222042202200220022001220115
:1000CE001D0220021B0419021B0219021801190934
:0E00DE0019021B021D021B011903180119094A
:1001780020620A0000F88CF8F3F95BF9B8FA15FA6E
:1001880067FAB9FB04FB4BFB90FBCFFC0CFC44FC6F
:1001980079FCACFCDCFD09FD34FD5CFD82FDA6FDAF
:1001A800C8FDE8FE06FE22FE3DFE56FE6EFE85FEFA
:1001B8009AFEAEFEC1FED3FEE4FEF4FF03FF11FF7C
:1001C8001EFF2BFF37FF42FF4DFF57FF61FF69FFFF
:0501D80072FF7AFF81B7
:10021200120245E50890000E93F5090508E50893DA
:1002220075F07DA4FFAEF012025C0508C28C7F055A
:100232007E0012025CD28CE508D394DD40D5E4F551
:030242000880D061
:03000B000201DE11
:1001DE00C0E0C0D075D000C000C006E50925E024FF
:1001EE000AF8E6FE08E64E6012E50925E0240AF854
:1001FE00E6FE08E6F58AEEF58CB2A5D006D000D064
:04020E00D0D0E0323A
:10025C00EF1FAC0670011E4C600A7D027CEFDCFEC9
:04026C00DDFC80EC49
:01027000226B
:100245005389F0438901758A18758CFCC28DD28C4F
:07025500D2A9D2AFC2B92209
:030000000200EC0F
:0C00EC00787FE4F6D8FD75816B020133CB
:1000F800020212E493A3F8E493A34003F68001F20A
:1001080008DFF48029E493A3F85407240CC8C33308
:10011800C4540F4420C8834004F456800146F6DFD7
:10012800E4800B0102040810204080900178E47EEE
:10013800019360BCA3FF543F30E509541FFEE493CC
:10014800A360010ECF54C025E060A840B8E493A393
:10015800FAE493A3F8E493A3C8C582C8CAC583CABE
:10016800F0A3C8C582C8CAC583CADFE9DEE780BE76
:0101DD000021
:00000001FF
